:020000040000FA
:100000000C9468000C9490000C9490000C941506CD
:100010000C9415060C9415060C9490000C9490000A
:100020000C9490000C9490000C9490000C94590542
:100030000C9490000C9490000C9490000C94900000
:100040000C940F050C9490000C94DD040C94B704F0
:100050000C9490000C9490000C9490000C949000E0
:100060000C9490000C9490000000000025002800E3
:100070002B0000000000240027002A000A0B0C0DB2
:100080000E0F0001020304050000000023002600FB
:10009000290004040404040404040202020202020B
:1000A000030303030303010204081020408001023C
:1000B00004081020010204081020000000080002BB
:1000C00001000003040700000000000000001F06FC
:1000D00011241FBECFEFD8E0DEBFCDBF11E0A0E0FE
:1000E000B1E0E4E8F4E202C005900D92A837B10750
:1000F000D9F722E0A8E7B1E001C01D92AA38B20703
:10010000E1F710E0C8E6D0E004C02197FE010E94AC
:100110003F10C736D107C9F70E94B6060C944012AB
:100120000C940000E0EAF1E0A089B18982E08C93B0
:10013000A485B5851C92A685B7858FEC8C93108E0F
:10014000A489B58986E08C93A289B3898C9180615A
:100150008C93A289B3898C9188608C93A289B3898E
:100160008C9180688C930288F389E02D80818F7D4B
:1001700080830895CF92DF92EF92FF92DC01A0324C
:1001800082E0B807D4F5A53BB10514F0A4EBB0E0CC
:100190004091840228E830E0241B310947FD339563
:1001A000220F331F220F331F6901330FEE08FF08A0
:1001B0004091850228E532E0241B310947FD339543
:1001C000220F331F220F331F032E000C440B550B3D
:1001D0002C193D094E095F09B7FF02C0B0E0A0E04D
:1001E0000E94A40E24EB30E040E050E00E947A0E22
:1001F000C20ED31EE41EF51ED601E0918302EC3040
:1002000080F52091840288E890E0821B910927FD07
:100210009395880F991F880F991FA817B90784F025
:100220002091850288E592E0821B910927FD939534
:10023000880F991F880F991FA817B9070CF4CD01D3
:100240000297880F991F4FB7F8942E2F30E0F901CD
:10025000EE0FFF1FE20FF31FE25CFD4F92838183DD
:100260004FBFFF90EF90DF90CF900895AF92BF9275
:10027000CF92DF92EF92FF920F931F93CF93DF9372
:100280006C017B018B01040F151FEB015E01AE18A1
:10029000BF08C017D10759F06991D601ED91FC91C3
:1002A0000190F081E02DC6010995892B79F7C501F0
:1002B000DF91CF911F910F91FF90EF90DF90CF9042
:1002C000BF90AF900895FC01538D448D252F30E0F1
:1002D000842F90E0821B930B541710F0CF96089553
:1002E00001970895FC01918D828D981761F0A28D80
:1002F000AE0FBF2FB11D5D968C91928D9F5F9F7346
:10030000928F90E008958FEF9FEF0895FC01918DFB
:10031000828D981731F0828DE80FF11D858D90E068
:1003200008958FEF9FEF0895FC01918D228D892F05
:1003300090E0805C9F4F821B91098F7399270895ED
:1003400080EA91E00E94940121E0892B09F420E0E9
:10035000822F089580E090E0892B29F00E94A0016F
:1003600081110C9400000895FC01A48DA80FB92FF1
:10037000B11DA35ABF4F2C91848D90E001968F73CD
:100380009927848FA689B7892C93A089B1898C91EC
:10039000837080648C93938D848D981306C002883B
:1003A000F389E02D80818F7D80830895EF92FF9205
:1003B0000F931F93CF93DF93EC0181E0888F9B8D88
:1003C0008C8D98131AC0E889F989808185FF15C042
:1003D0009FB7F894EE89FF896083E889F989808165
:1003E0008370806480839FBF81E090E0DF91CF9134
:1003F0001F910F91FF90EF900895F62E0B8D10E056
:100400000F5F1F4F0F731127E02E8C8D8E110CC0C4
:100410000FB607FCFACFE889F989808185FFF5CF0F
:10042000CE010E94B401F1CFEB8DEC0FFD2FF11D39
:10043000E35AFF4FF0829FB7F8940B8FEA89FB894C
:1004400080818062CFCFCF93DF93EC01888D8823AA
:10045000B9F0AA89BB89E889F9898C9185FD03C027
:10046000808186FD0DC00FB607FCF7CF8C9185FF0C
:10047000F2CF808185FFEDCFCE010E94B401E9CF9C
:10048000DF91CF910895833081F028F4813099F085
:100490008230A9F008958730A9F08830C9F08430FF
:1004A000B1F4809180008F7D03C0809180008F77B0
:1004B00080938000089584B58F7784BD089584B5B6
:1004C0008F7DFBCF8091B0008F778093B00008952F
:1004D0008091B0008F7DF9CF1F93CF93DF93282FAA
:1004E00030E0F901E654FF4F8491F901EA55FF4FDE
:1004F000D491F901EE56FF4FC491CC23A9F0162FE9
:1005000081110E944302EC2FF0E0EE0FFF1FE8592B
:10051000FF4FA591B4918FB7F894EC91111108C0D9
:10052000D095DE23DC938FBFDF91CF911F9108958B
:10053000DE2BF8CF682F809167020E946C028091B9
:100540007F02909180028230910538F0880F991FC8
:10055000880F991F05970197F1F7089581E00C9492
:100560009A02CF93DF9390E0FC01EA55FF4F24916C
:100570008E569F4FFC0184918823C9F090E0880F2C
:10058000991FFC01EE58FF4FA591B491FC01E85969
:10059000FF4FC591D49161110DC09FB7F8948C9114
:1005A000209582238C938881282328839FBFDF9105
:1005B000CF910895623051F49FB7F8943C91822F07
:1005C000809583238C93E8812E2BEFCF8FB7F894FF
:1005D000EC912E2B2C938FBFEACF8E5080648093AA
:1005E0007C0080917A00806480937A0080917A0008
:1005F00086FDFCCF809178009091790008953FB7F7
:10060000F89480917C0190917D01A0917E01B09140
:100610007F0126B5A89B05C02F3F19F00196A11DAB
:10062000B11D3FBFBA2FA92F982F8827BC01CD013C
:10063000620F711D811D911D42E0660F771F881F9B
:10064000991F4A95D1F708958F929F92AF92BF92CA
:10065000CF92DF92EF92FF924B015C010E94FF026A
:100660006B017C010E94FF026C197D098E099F09B4
:10067000683E734081059105A8F321E0821A910834
:10068000A108B10888EEC80E83E0D81EE11CF11C59
:1006900081149104A104B10429F7FF90EF90DF9039
:1006A000CF90BF90AF909F908F9008958EBD000027
:1006B0000DB407FEFDCF8EB508950F931F930091E3
:1006C000690210916A0220916B0230916C0240E045
:1006D00052E16AE770E080E0041715072607370744
:1006E00040F476956795579547958F5F8630A1F7CB
:1006F00087E0982F906A9695809581709CBD8DBDFE
:1007000080E01F910F910C949A02CF93C82F0E9402
:100710005D038C2F80620E94560380936D02CF91FF
:100720000C94AE02CF93C82F0E945D038C2F0E94C1
:10073000560380936D028FEF0E945603C82F0E94CC
:10074000AE028C2FCF910895FF920F931F93CF93FA
:10075000DF93C82FF62E072F142F0E945D038C2FD6
:1007600080620E94560380936D02CF2DD02F1150CE
:1007700020F089910E945603FACFDF91CF911F910B
:100780000F91FF900C94AE020E945D0380E50E94E1
:10079000560380936D0283E70E9456030C94AE02C9
:1007A000CF93DF93D82FC62F0E945D038D2F8062D9
:1007B0000E94560380936D028C2F0E945603DF9196
:1007C000CF910C94AE026091740261FD0AC0626028
:1007D0006093740280E00E94D0038BE19EE4019755
:1007E000F1F70895FC0101900020E9F73197AF017E
:1007F000481B590BBC0180EA91E00C9436018F92A2
:100800009F92AF92BF920F931F93CF93DF93CDB779
:10081000DEB7A1970FB6F894DEBF0FBECDBF19A209
:10082000423008F44AE08E010F5D1F4F842E912C58
:10083000B12CA12CA50194010E94E30EE62FB90171
:10084000CA01EA30F4F4E05DD801EE938D01232B68
:10085000242B252B79F790E080E0109719F0CD013B
:100860000E94F203A1960FB6F894DEBF0FBECDBF73
:10087000DF91CF911F910F91BF90AF909F908F907C
:100880000895E95CE1CFCF93DF930E94F203EC017E
:100890008FE191E00E94F2038C0F9D1FDF91CF91B9
:1008A0000895FC0124813581232B39F421E0FB01DB
:1008B0008081882349F020E007C0808191810E94D7
:1008C000301221E0892BB9F7822F0895FC01808135
:1008D0009181009711F00C94E1100895EF92FF922E
:1008E0000F931F93CF93DF93EC017B011982188242
:1008F0001B821A821D821C82FB0101900020E9F7F5
:1009000031978F01061B170BB8016F5F7F4F90E087
:1009100080E00E946A110097B9F0998388831B8355
:100920000A832C813D81232B11F4FC0110821D834D
:100930000C83B70188819981DF91CF911F910F912D
:10094000FF90EF900C94391288819981009711F0F3
:100950000E94E110198218821D821C821B821A8259
:10096000DF91CF911F910F91FF90EF9008951F920B
:100970000F920FB60F9211242F933F934F935F93D3
:100980006F937F938F939F93AF93BF93EF93FF9357
:1009900080EA91E00E94B401FF91EF91BF91AF9185
:1009A0009F918F917F916F915F914F913F912F9187
:1009B0000F900FBE0F901F9018951F920F920FB6B9
:1009C0000F9211242F938F939F93EF93FF93E091B6
:1009D000B001F091B1018081E091B601F091B701D1
:1009E00082FD1BC090818091B9018F5F8F73209130
:1009F000BA01821741F0E091B901F0E0E056FE4FF4
:100A0000958F8093B901FF91EF919F918F912F91D5
:100A10000F900FBE0F901F9018958081F4CF1F92FA
:100A20000F920FB60F9211242F933F938F939F93A2
:100A3000AF93BF938091850190918601A09187012A
:100A4000B091880130917B0123E0230F2D3758F5B9
:100A50000196A11DB11D20937B0180938501909388
:100A60008601A0938701B093880180917C019091C9
:100A70007D01A0917E01B0917F010196A11DB11D64
:100A800080937C0190937D01A0937E01B0937F01C0
:100A9000BF91AF919F918F913F912F910F900FBE7A
:100AA0000F901F90189526E8230F0296A11DB11DE7
:100AB000D2CF1F920F920FB60F9211242F933F9314
:100AC0004F935F936F937F938F939F93AF93BF9356
:100AD000CF93DF93EF93FF9380917A01C0916202ED
:100AE000D0E087FF24C0109285001092840080918E
:100AF0007A018F5F80937A0180917A01082E000C31
:100B0000990B8C179D0724F480917A018C30C4F1E5
:100B10008091840090918500049680349C4908F46B
:100B20007AC08091840090918500049676C080916F
:100B30007A01082E000C990B8C179D07C4F6E091E2
:100B40007A018E2FEE0F990BFC01EE0FFF1FE80FBD
:100B5000F91FE25CFD4F808186FFC9CFE0917A01E9
:100B60008E2FEE0F990BFC01EE0FFF1FE80FF91F00
:100B7000E25CFD4F808160E08F730E946C02B7CF12
:100B80002091840030918500E0917A018E2FEE0F44
:100B9000990BFC01EE0FFF1FE80FF91FE25CFD4F00
:100BA00081819281820F931F9093890080938800A6
:100BB000E0917A018E2FEE0F990BFC01EE0FFF1FD3
:100BC000E80FF91FE25CFD4F808186FF11C0E091C4
:100BD0007A018E2FEE0F990BFC01EE0FFF1FE80F2D
:100BE000F91FE25CFD4F808161E08F730E946C020F
:100BF000FF91EF91DF91CF91BF91AF919F918F9135
:100C00007F916F915F914F913F912F910F900FBE08
:100C10000F901F90189580E49CE990938900809331
:100C200088008FEF80937A01E3CF1F920F920FB667
:100C30000F9211240F900FBE0F901F9018951092D5
:100C4000A3011092A20188EE93E0A0E0B0E08093AF
:100C5000A4019093A501A093A601B093A70181E1FF
:100C600091E09093A1018093A00185EC90E0909396
:100C7000AD018093AC0184EC90E09093AF01809340
:100C8000AE0180EC90E09093B1018093B00181ECD3
:100C900090E09093B3018093B20182EC90E0909346
:100CA000B5018093B40186EC90E09093B7018093F6
:100CB000B6011092B9011092BA011092BB011092C4
:100CC000BC01809162028C3008F04CC091E0980F1A
:100CD000909362028093830290E0FC01EE0FFF1F6D
:100CE000E80FF91FE25CFD4F88EB9BE09283818364
:100CF00087E090E0909366028093650288E090E040
:100D0000909368028093670280E896E9A8E9B0E0D2
:100D10008093690290936A02A0936B02B0936C0275
:100D200080E280936E02109275021092760285E046
:100D30008093780281E08093790285E090E0A0E0E2
:100D4000B0E080937F0290938002A0938102B093E1
:100D500082028DE392E0909364028093630210928A
:100D60006F0208958FEF80938302C2CFCF93DF93FA
:100D7000CDB7DEB7E2970FB6F894DEBF0FBECDBF9A
:100D8000789484B5826084BD84B5816084BD85B566
:100D9000826085BD85B5816085BD80916E00816072
:100DA00080936E0010928100809181008260809318
:100DB000810080918100816080938100809180001A
:100DC0008160809380008091B10084608093B10045
:100DD0008091B00081608093B00080917A0084603F
:100DE00080937A0080917A00826080937A0080916B
:100DF0007A00816080937A0080917A008068809385
:100E00007A001092C1000E94920061E089E00E9485
:100E1000B10261E08AE00E94B10261E08FE00E94CD
:100E2000B10261E080E10E94B10261E081E10E94D3
:100E3000B10261E082E10E94B10260E08EE00E94B6
:100E4000B10261E089E00E94B10261E08AE00E94A3
:100E5000B10261E084E00E94B10260E084E10E949E
:100E6000B10260E085E10E94B10262E083E00E948D
:100E7000B102809183028C3008F051C061E085E0BE
:100E80000E94B10280918302282F30E0F901EE0F19
:100E9000FF1FE20FF31FE25CFD4F9081907C956095
:100EA000908310928402109285022CE0622F0E949F
:100EB0002C10829FB001112430E020E0AB01420FE2
:100EC000531FFA01EE0FFF1FE40FF51FE25CFD4F09
:100ED000908196FD16C02F5F3F4F2C30310571F782
:100EE00081110FC01092800082E0809381001092E7
:100EF000850010928400B19A80916F008260809387
:100F00006F00E09183028E2F90E0FC01EE0FFF1F37
:100F1000E80FF91FE25CFD4F80818064808385E1EA
:100F20000E94ED0224EB30E0DC010E9438102FEF2C
:100F300033E040E050E00E947A0EC9010E94BA00FE
:100F40000E9492001FB7F89480918001811127C000
:100F5000ECE9F0E08491E0EBF0E09491E82FF0E030
:100F6000EE0FFF1FEE58FF4FA591B491EC91E923CE
:100F700021F461E08AE00E946C0261E08AE00E9454
:100F8000B1028CB580618CBD8CB580648CBD61E094
:100F90008DE00E94B10261E08BE00E94B10280917D
:100FA00080018F5F809380011FBF809165029091C7
:100FB00066028F3F980709F498C02091670230912C
:100FC00068022F3F320709F490C08217930741F05F
:100FD00061E00E94B10261E0809167020E94B1026B
:100FE00080916502909166022091670230916802BB
:100FF0008217930719F060E00E946C0281E00E9462
:101000009A0265E070E080E090E00E9424036FE5C2
:1010100084E00E94D00386E00E94920345E550E000
:1010200060E070E040937B0250937C0260937D020D
:1010300070937E02682F677D86E00E94D00386E071
:101040000E9492038DE10E949203182F0E94C40314
:101050008DE10E94920391E0181390E09093750245
:10106000882341F0181302C00E94C40360E08DE1A0
:101070000E94D0031092770260E08CE10E94D003BE
:10108000109279026FE381E00E94D00363E082E076
:101090000E94D00380E280936E0211E160916E02A3
:1010A000812F0E94D0031F5F1731C1F763E083E0F7
:1010B0000E94D00385E0809378026CE40E94D00304
:1010C00060E787E00E94D00382EE0E94850381EEF4
:1010D0000E9485036CE080E00E94D00380E00E94C3
:1010E0009203809374020E94E30361E085E00E9412
:1010F000D0034091780250E067E071E08FE692E023
:101100000E94271281E080937602ECE7F0E0849160
:101110004091780267E071E00E94A40382E00E949F
:10112000920302E810E0F801949161E070E001C0E0
:10113000660F9A95EAF7682B82E00E94D00386E05A
:101140000E949203887F682F616086E00E94D0032E
:101150006AEA84E00E94D0030E94E3036091740273
:1011600061606093740280E00E94D00360E787E0D2
:101170000E94D003809165029091660220916702DF
:10118000309168028217930719F061E00E946C02A7
:1011900080917602882309F484C0409178026FE63A
:1011A00072E08AE00E94A4038E010D5F1F4F1EA70C
:1011B0000DA744244A9443E0542E612C712C30E056
:1011C000232E30E0332E2FB7F89480918501909133
:1011D0008601A0918701B09188012FBF80939C0167
:1011E00090939D01A0939E01B0939F01409198011F
:1011F0005091990160919A0170919B01841B950B0C
:10120000A60BB70B8093940190939501A093960140
:10121000B09397018091930161E0811101C060E07A
:1012200089E00E946C028091920161E0811101C00D
:1012300060E08AE00E946C021A821982ADA5BEA508
:10124000EEE11D92EA95E9F78FEF0E948503809108
:101250006D0290E0959587958770863008F041C0C3
:101260008091790200E010E2811107C000916E02C6
:10127000102F013208F010E2011B0E945D0381E68D
:101280000E94560380936D029E012F5F3F4F7901AC
:101290001150D8F08FEF0E945603D7018D937D0136
:1012A000F7CF82E00E949203F801049121E030E040
:1012B00001C0220F0A95EAF72095622F682382E089
:1012C0000E94D003109276026FCF015020F08FEF72
:1012D0000E945603FACF0E94AE0260E487E00E94AB
:1012E000D003BE016F5F7F4FCE0181960E946E04D6
:1012F00061E271E0CE0181960E94510400E081110B
:1013000014C0BE016F5F7F4FCE0187960E946E04AE
:1013100062E271E0CE0187960E94510401E08111E2
:1013200000E0CE0187960E946604CE0181960E945D
:101330006604002321F0CE0101960E944304BE0101
:101340006F5F7F4FCE0181960E946E046AE271E06A
:10135000CE0181960E94510400919201811101C039
:1013600000E0CE0181960E946604002321F18EE206
:1013700091E00E94430484E10E94ED0224EB30E0FE
:10138000DC010E943810A30192010E947A0E6901CB
:101390003093910120939001C9010E94BA00C601C7
:1013A0000E94BA0081E080939301E8E8F3E1F093B2
:1013B0008F01E0938E01BE016F5F7F4FCE0181965A
:1013C0000E946E046DE371E0CE0181960E9451048B
:1013D00000919201811101C000E0CE0181960E942E
:1013E0006604002321F182E491E00E94430484E139
:1013F0000E94ED0224EB30E0DC010E943810A301D2
:1014000092010E947A0E690130939101209390011C
:10141000C9010E94BA00C6010E94BA0081E080930F
:10142000930100E117E210938F0100938E018FB7B3
:10143000F894C0908501D0908601E0908701F090EB
:1014400088018FBF80918A0190918B01A0918C01BE
:10145000B0918D01A7019601281B390B4A0B5B0B3C
:10146000CA01B9014AE00E94FF038FE191E00E94A6
:10147000F20380918A0190918B01A0918C01B0912F
:101480008D01B701A601481B590B6A0B7B0B80919C
:101490008E0190918F01092E000CAA0BBB0B4817EF
:1014A00059076A077B0708F18091890181111DC0E6
:1014B000C0928A01D0928B01E0928C01F0928D0152
:1014C00085E10E94ED0224EB30E0DC010E9438103F
:1014D000A30192010E947A0EC9010E94BA001092E3
:1014E000930110928F0110928E01BE016F5F7F4FAA
:1014F000CE0181960E946E0462E571E0CE01819674
:101500000E94510400E0882321F00091920181E0C3
:101510000827CE0181960E9466040023D1F181E064
:101520008093920180919C0190919D01A0919E01D8
:10153000B0919F018093980190939901A0939A0193
:10154000B0939B0196E0E92EF12C61E08AE00E94C5
:101550006C0261E084E00E946C0260E570E080E073
:1015600090E00E94240360E08AE00E946C0260E048
:1015700084E00E946C0260E570E080E090E00E94F0
:10158000240361E08AE00E946C0231E0E31AF10872
:10159000E1F6BE016F5F7F4FCE0181960E946E041F
:1015A0006EE571E0CE0181960E9451040091920196
:1015B000811101C000E0CE0181960E9466040023E3
:1015C00001F188E591E00E94430484E10E94ED026C
:1015D00024EB30E0DC010E943810A30192010E944C
:1015E0007A0E3093910120939001C9010E94BA00B4
:1015F00081E0809393014FEF5FE950938F01409317
:101600008E0180919301882329F1BE016F5F7F4F86
:10161000CE0181960E946E0467E671E0CE0181964C
:101620000E945104082FCE0181960E946604002377
:1016300089F081E691E00E94430485E10E94ED0279
:1016400090E080E00E94BA001092930110928F0106
:1016500010928E01BE016F5F7F4FCE0181960E9476
:101660006E0462E271E0CE0181960E9451048823EB
:1016700071F001E08091940190919501A091960103
:10168000B091970184369105A105B10508F400E0F9
:10169000CE0181960E946604002309F410C181E006
:1016A0008093000180919C0190919D01A0919E01E9
:1016B000B0919F018093980190939901A0939A0112
:1016C000B0939B0180910001811117C0109292018B
:1016D0001092930181E08093000180919C01909190
:1016E0009D01A0919E01B0919F01809398019093DC
:1016F0009901A0939A01B0939B01EDEBF0E08491E6
:10170000E9EAF0E0F490E5E9F0E00491002309F45F
:101710008CC081110E944302E02FF0E0EE0FFF1F0A
:10172000E857FF4FA591B4918C91F82209F47DC040
:1017300081E0809389018EE00E94ED02BC01990F47
:10174000880B990B0E945D0D20E030E040EA50E4E8
:101750000E94BC0D20E030EC4FE754E40E94810F62
:1017600020E030E0A9010E94150F6B017C014B01C4
:101770005C01C0928101D0928201E0928301F092DB
:101780008401AC019B010E942710882309F4ADC09D
:101790008BE691E00E94F2038FE191E00E94F20358
:1017A000C0908101D0908201E0908301F09084018B
:1017B00020E030E040E850E4C701B6010E9422106A
:1017C00061E087FF15C020E030E040E850E4C70149
:1017D000B6010E94560D87FF23C120E030E040E7AC
:1017E00050E4C701B6010E94221087FD19C160E0D4
:1017F0008FE00E946C0261E080E10E946C0261E077
:1018000081E10E946C0261E082E10E946C0220E0B2
:1018100030E040E550E4C701B6010E94560D87FF55
:1018200004C060E082E10E946C022FB7F8948091BE
:10183000850190918601A0918701B09188012FBF09
:1018400040918A0150918B0160918C0170918D01C2
:101850008C019D01041B150B260B370BB901A80148
:10186000403D574061057105F0F020918901222328
:10187000D1F080938A0190938B01A0938C01B09357
:101880008D011092890160E08FE00E946C0260E09F
:1018900080E10E946C0260E081E10E946C0260E0E5
:1018A00082E10E946C022114310409F48CCC0E9464
:1018B000A001882309F483CC0E94000080CC809191
:1018C000940190919501A0919601B0919701883E65
:1018D0009340A105B10508F4F5CE809192018823CB
:1018E00009F4F0CE10920001DDCE970186013F771A
:1018F0000FA718AB29AB3AAB2FEF3FEF4FE75FE7EE
:101900006FA578A989A99AA90E94271081110FC0F3
:101910002FEF3FEF4FE75FE76FA578A989A99AA955
:101920000E94560D18161CF48FE691E033CF2FEF6E
:101930003FEF4FE75FE4C701B6010E94221018167F
:101940001CF483E791E026CF2FEF3FEF4FE75FECEA
:10195000C701B6010E94560D87FDF3CF20E030E0AD
:10196000A901C701B6010E94560D87FF0BC06DE2A9
:1019700080EA91E00E94D60146015701B7FAB0947F
:10198000B7F8B0942AE037ED43EA5BE3C501B40150
:101990000E94150F4B015C010E94F30F6B017C014B
:1019A0000E945B0D9B01AC01C501B4010E94140FA4
:1019B0004B015C014AE0C701B6010E94FF036EE2E1
:1019C00080EA91E00E94D60120E030E040E251E45C
:1019D000C501B4010E94BC0D4B015C010E94F30FD4
:1019E0006B01F12CE12C4AE0C701B6010E94FF0314
:1019F000C701B6010E945B0D9B01AC01C501B4019A
:101A00000E94140F20E030E040E251E40E94BC0D3F
:101A10000E94F30F90E080E04AE00E94FF03BCCEFA
:101A200020E030E040E750E4C701B6010E94560DC7
:101A300087FF10C02DEC3CEC4CE550E4C701B6012B
:101A40000E94221087FD06C060E08FE00E946C02B9
:101A500060E0D2CE2DEC3CEC4CE550E4C701B60181
:101A60000E94560D87FF14C020E030E040E550E4AE
:101A7000C701B6010E94221087FD0AC060E08FE016
:101A80000E946C0260E080E10E946C0260E0B8CECF
:101A900060E08FE00E946C0260E080E10E946C02D6
:101AA00060E081E10E946C0260E0AECE0E94980D81
:101AB00008F481E00895E89409C097FB3EF49095FE
:101AC0008095709561957F4F8F4F9F4F9923A9F017
:101AD000F92F96E9BB279395F695879577956795A6
:101AE000B795F111F8CFFAF4BB0F11F460FF1BC0EA
:101AF0006F5F7F4F8F4F9F4F16C0882311F096E97D
:101B000011C0772321F09EE8872F762F05C066232A
:101B100071F096E8862F70E060E02AF09A95660FE3
:101B2000771F881FDAF7880F9695879597F908959C
:101B3000990F0008550FAA0BE0E8FEEF16161706DE
:101B4000E807F907C0F012161306E407F50798F046
:101B5000621B730B840B950B39F40A2661F0232B5F
:101B6000242B252B21F408950A2609F4A140A695DB
:101B70008FEF811D811D08950E94CF0D0C94400EA2
:101B80000E94320E38F00E94390E20F0952311F099
:101B90000C94290E0C942F0E11240C94740E0E9498
:101BA000510E70F3959FC1F3950F50E0551F629F42
:101BB000F001729FBB27F00DB11D639FAA27F00DA6
:101BC000B11DAA1F649F6627B00DA11D661F829FCD
:101BD0002227B00DA11D621F739FB00DA11D621FB2
:101BE000839FA00D611D221F749F3327A00D611DCF
:101BF000231F849F600D211D822F762F6A2F1124B1
:101C00009F5750409AF0F1F088234AF0EE0FFF1FE3
:101C1000BB1F661F771F881F91505040A9F79E3F3A
:101C2000510580F00C94290E0C94740E5F3FE4F380
:101C3000983ED4F3869577956795B795F795E79590
:101C40009F5FC1F7FE2B880F911D9695879597F999
:101C5000089597F99F6780E870E060E008959FEF2E
:101C600080EC089500240A94161617061806090633
:101C7000089500240A941216130614060506089502
:101C8000092E0394000C11F4882352F0BB0F40F48A
:101C9000BF2B11F460FF04C06F5F7F4F8F4F9F4FCA
:101CA000089557FD9058440F551F59F05F3F71F04C
:101CB0004795880F97FB991F61F09F3F79F08795B3
:101CC0000895121613061406551FF2CF4695F1DF3C
:101CD00008C0161617061806991FF1CF86957105CC
:101CE000610508940895E894BB2766277727CB0100
:101CF00097F90895052E97FB1EF400940E94910E0B
:101D000057FD07D00E94E30E07FC03D04EF40C945D
:101D1000910E50954095309521953F4F4F4F5F4F15
:101D2000089590958095709561957F4F8F4F9F4F47
:101D300008950E94050FA59F900DB49F900DA49F3C
:101D4000800D911D11240895B7FF0C94990E0E94E7
:101D5000990E821B930B08952F923F924F925F92A0
:101D60006F927F928F929F92AF92BF92CF92DF92AB
:101D7000EF92FF920F931F93CF93DF93CDB7DEB710
:101D8000CA1BDB0B0FB6F894DEBF0FBECDBF0994A4
:101D90002A88398848885F846E847D848C849B84FB
:101DA000AA84B984C884DF80EE80FD800C811B8109
:101DB000AA81B981CE0FD11D0FB6F894DEBF0FBE38
:101DC000CDBFED010895A1E21A2EAA1BBB1BFD0198
:101DD0000DC0AA1FBB1FEE1FFF1FA217B307E4070A
:101DE000F50720F0A21BB30BE40BF50B661F771F62
:101DF000881F991F1A9469F7609570958095909542
:101E00009B01AC01BD01CF010895A29FB001B39F1A
:101E1000C001A39F700D811D1124911DB29F700DF3
:101E2000811D1124911D08955058BB27AA270E9497
:101E30002C0F0C94400E0E94320E38F00E94390E86
:101E400020F039F49F3F19F426F40C942F0E0EF471
:101E5000E095E7FB0C94290EE92F0E94510E58F3F0
:101E6000BA17620773078407950720F079F4A6F57F
:101E70000C94730E0EF4E0950B2EBA2FA02D0B01CF
:101E8000B90190010C01CA01A0011124FF27591BBF
:101E900099F0593F50F4503E68F11A16F040A22FC5
:101EA000232F342F4427585FF3CF46953795279536
:101EB000A795F0405395C9F77EF41F16BA0B620B35
:101EC000730B840BBAF09150A1F0FF0FBB1F661F7C
:101ED000771F881FC2F70EC0BA0F621F731F841FBF
:101EE00048F4879577956795B795F7959E3F08F0E5
:101EF000B0CF9395880F08F09927EE0F97958795A7
:101F000008950E94950F0C94400E0E94390E58F0CF
:101F10000E94320E40F029F45F3F29F00C94290E04
:101F200051110C94740E0C942F0E0E94510E68F3F4
:101F30009923B1F3552391F3951B550BBB27AA2782
:101F400062177307840738F09F5F5F4F220F331FBC
:101F5000441FAA1FA9F335D00E2E3AF0E0E832D084
:101F600091505040E695001CCAF72BD0FE2F29D087
:101F7000660F771F881FBB1F261737074807AB0759
:101F8000B0E809F0BB0B802DBF01FF2793585F4FCE
:101F90003AF09E3F510578F00C94290E0C94740E83
:101FA0005F3FE4F3983ED4F3869577956795B795B0
:101FB000F7959F5FC9F7880F911D9695879597F9BB
:101FC0000895E1E0660F771F881FBB1F6217730734
:101FD0008407BA0720F0621B730B840BBA0BEE1F49
:101FE00088F7E09508950E94590E88F09F5798F061
:101FF000B92F9927B751B0F0E1F0660F771F881F0E
:10200000991F1AF0BA95C9F714C0B13091F00E9427
:10201000730EB1E008950C94730E672F782F882704
:10202000B85F39F0B93FCCF3869577956795B3954E
:10203000D9F73EF490958095709561957F4F8F4FBD
:102040009F4F08950E94980D08F48FEF08950E9405
:10205000980D880B990B0895991B79E004C0991F7E
:10206000961708F0961B881F7A95C9F780950895F2
:102070000E94050FB7FF0895821B930B0895EE0F82
:10208000FF1F0590F491E02D09940F931F93CF93B8
:10209000DF938230910510F482E090E0E0918802B5
:1020A000F091890230E020E0B0E0A0E0309799F4B0
:1020B0002115310509F44AC0281B390B243031059C
:1020C000D8F58A819B816115710589F1FB019383A4
:1020D0008283FE0111C04081518102811381481722
:1020E0005907E0F04817590799F4109761F01296D4
:1020F0000C93129713961C933296CF01DF91CF91D8
:102100001F910F9108950093880210938902F4CFD4
:102110002115310551F04217530738F0A901DB01B1
:102120009A01BD01DF01F801C1CFEF01F9CF909312
:10213000890280938802CDCFFE01E20FF31F8193C5
:1021400091932250310939832883D7CF2091860279
:1021500030918702232B41F4209103013091040137
:102160003093870220938602209101013091020171
:102170002115310541F42DB73EB74091050150912D
:102180000601241B350BE0918602F0918702E217CD
:10219000F307A0F42E1B3F0B2817390778F0AC018A
:1021A0004E5F5F4F2417350748F04E0F5F1F509367
:1021B000870240938602819391939FCFF0E0E0E005
:1021C0009CCFCF93DF930097E9F0FC013297138205
:1021D0001282A0918802B0918902ED0130E020E0E6
:1021E0001097A1F420813181820F931F20918602E4
:1021F000309187022817390709F061C0F0938702F0
:10220000E0938602DF91CF910895EA01CE17DF07B0
:10221000E8F54A815B819E0141155105B1F7E9015D
:10222000FB83EA8349915991C40FD51FEC17FD0731
:1022300061F4808191810296840F951FE901998351
:102240008883828193819B838A83F0E0E0E0129609
:102250008D919C9113970097B9F52D913C91119711
:10226000CD010296820F931F209186023091870242
:102270002817390739F6309751F5109289021092D4
:102280008802B0938702A0938602BCCFD383C28317
:1022900040815181840F951FC817D90761F44E5FA3
:1022A0005F4F88819981480F591F518340838A81EC
:1022B0009B81938382832115310509F0B0CFF09380
:1022C0008902E09388029ECFFD01DC01C0CF13821A
:1022D0001282D7CFB0E0A0E0E0E7F1E10C94AE0EBF
:1022E0008C01009751F4CB010E9445108C01C8016C
:1022F000CDB7DEB7E0E10C94CA0EFC01E60FF71F84
:102300009C0122503109E217F30708F49DC0D9015E
:10231000CD91DC911197C617D70798F0C530D1053C
:1023200030F3CE0104978617970708F3C61BD70B27
:102330002297C193D1936D937C93CF010E94E110BA
:10234000D6CF5B01AC1ABD0A4C018C0E9D1EA0912C
:102350008802B0918902512C412CF12CE12C10976C
:1023600031F580918602909187028815990509F0D0
:102370005CC04616570608F058C080910101909144
:102380000201009741F48DB79EB74091050150912D
:102390000601841B950BE817F90708F055C0F09368
:1023A0008702E0938602F90171836083A0CF8D914B
:1023B0009C91119712966C90129713967C9013979C
:1023C000A815B90559F56C0142E0C40ED11CCA1418
:1023D000DB0420F1AC014A195B09DA01129615976A
:1023E00080F06282738251834083D9016D937C9324
:1023F000E114F10471F0D7011396FC93EE93129758
:1024000076CF22968C0F9D1FF90191838083F30173
:10241000EFCFF0938902E093880269CF48165906FE
:1024200008F42C017D01D3019ACFCB010E94451005
:102430007C01009749F0AE01B8010E942712C80143
:102440000E94E110870153CF10E000E050CFFB0164
:10245000DC0102C001900D9241505040D8F7089520
:10246000FB01DC018D91019080190110D9F3990BCA
:102470000895FB01DC0101900D920020E1F7089521
:10248000F894FFCF0100008A028000575253303188
:102490000000000000D6013601630123029401729E
:1024A0000186010D0A00434F4E54524F4C004F4ECF
:1024B0003500536572766F20352073656B756E64D9
:1024C000004F4E313000536572766F2031302073EB
:1024D000656B756E640052454144590053657277CF
:1024E0006F204F4E00536572776F204F4646006E47
:0C24F000616E00696E66006F7666000089
:107E0000112484B714BE81FFF0D085E080938100F7
:107E100082E08093C00088E18093C10086E0809377
:107E2000C20080E18093C4008EE0C9D0259A86E02C
:107E300020E33CEF91E0309385002093840096BBD3
:107E4000B09BFECF1D9AA8958150A9F7CC24DD24C4
:107E500088248394B5E0AB2EA1E19A2EF3E0BF2EE7
:107E6000A2D0813461F49FD0082FAFD0023811F036
:107E7000013811F484E001C083E08DD089C08234E0
:107E800011F484E103C0853419F485E0A6D080C0E4
:107E9000853579F488D0E82EFF2485D0082F10E0AE
:107EA000102F00270E291F29000F111F8ED06801E7
:107EB0006FC0863521F484E090D080E0DECF843638
:107EC00009F040C070D06FD0082F6DD080E0C81688
:107ED00080E7D80618F4F601B7BEE895C0E0D1E017
:107EE00062D089930C17E1F7F0E0CF16F0E7DF06D8
:107EF00018F0F601B7BEE89568D007B600FCFDCFD4
:107F0000A601A0E0B1E02C9130E011968C91119780
:107F100090E0982F8827822B932B1296FA010C0160
:107F200087BEE89511244E5F5F4FF1E0A038BF0790
:107F300051F7F601A7BEE89507B600FCFDCF97BE46
:107F4000E89526C08437B1F42ED02DD0F82E2BD052
:107F50003CD0F601EF2C8F010F5F1F4F84911BD097
:107F6000EA94F801C1F70894C11CD11CFA94CF0C13
:107F7000D11C0EC0853739F428D08EE10CD085E9AC
:107F80000AD08FE07ACF813511F488E018D01DD067
:107F900080E101D065CF982F8091C00085FFFCCF94
:107FA0009093C60008958091C00087FFFCCF809118
:107FB000C00084FD01C0A8958091C6000895E0E648
:107FC000F0E098E1908380830895EDDF803219F02E
:107FD00088E0F5DFFFCF84E1DECF1F93182FE3DFCA
:107FE0001150E9F7F2DF1F91089580E0E8DFEE27F6
:047FF000FF270994CA
:027FFE00040479
:00000001FF
